:03000000020016E5
:0C001600787FE4F6D8FD758121020637E2
:0F0719007D517C04ED1D70011C144C70F7DFF155
:0107280022AE
:10002600EFD3940740037F0122120430FED39403DA
:1000360040037F0222EF7041EE700B900001120424
:1000460049F452935294120430B4010B90000112F9
:1000560004494293F45294120430FEB4020A90000A
:100066000112044942934294EEB4030D900001122A
:100076000449FEF45293EE4294EF64017043120475
:1000860030FE700B900001120449F452915292EE28
:10009600B4010B9000011204494291F452921204E9
:1000A60030B4020A900001120449429142921204AD
:1000B60030B4030D900001120449FEF45291EE4251
:1000C60092EF64027043120430FE700B900001122E
:1000D6000449F452955296EEB4010B9000011204B5
:1000E600494295F45296120430B4020A9000011265
:1000F600044942954296120430B4030D9000011251
:100106000449FEF45295EE4296EF640370431204DE
:1001160030FE700B900001120449F452B152B2EE57
:10012600B4010B90000112044942B1F452B2120418
:1001360030B4020A90000112044942B142B21204DC
:1001460030B4030D900001120449FEF452B1EE42A0
:10015600B2EF64047043120430FE700B900001127B
:100166000449F452B352B4EEB4010B9000011204E8
:100176004942B3F452B4120430B4020A9000011298
:10018600044942B342B4120430B4030D9000011284
:100196000449FEF452B3EE42B4EF64057043120410
:1001A60030FE700B900001120449F452C952CAEE97
:1001B600B4010B90000112044942C9F452CA120458
:1001C60030B4020A90000112044942C942CA12041C
:1001D60030B4030D900001120449FEF452C9EE42F8
:1001E600CAEF64067043120430FE700B90000112D1
:1001F6000449F452CB52CCEEB4010B900001120428
:100206004942CBF452CC120430B4020A90000112D7
:10021600044942CB42CC120430B4030D90000112C3
:100226000449FEF452CBEE42CCEF6407704312044D
:1002360030FF700B900001120449F452E152E2EFD4
:10024600B4010B90000112044942E1F452E2120497
:1002560030B4020A90000112044942E142E212045B
:1002660030B4030D900001120449FFF452E1EF424D
:04027600E27F002201
:100680005354433848314B3038205541525431206F
:10069000546573742050726F6772616D210D0A008A
:1006A0006C6564204F4E0D0A006C6564204F464611
:0306B0000D0A0030
:100708007509047508037B007A0079087F010200E7
:0107180026BA
:1006B300750840750901750D00750CC2750B017540
:1006C3000A00750F01E4F510751101F512F513FB1E
:1006D3007A0079087F0112027A7BFF7A0679800219
:0206E300000312
:100637001207081206B3D2AFE4F5907F011207192B
:10064700E520D3940040F4D520F1E51FD394004072
:1006570023900000E02489600F240670177590042A
:100667007BFF7A0679A08009E4F5907BFF7A06790B
:09067700A9120003E4F51F80C282
:06027A008B148A158916A1
:10028000EF6401600302042D751B01F51CF51DF5DB
:100290001EF51FF520F5217F80900080E4F0A3DF9C
:1002A000FC7F80900000E4F0A3DFFCAB14AA15A94A
:1002B0001690000A120449FED3940340037F0222E1
:1002C000EE700553B7EFC2BC90000A120449B401A6
:1002D0000553B7EFD2BC90000A120449FFB40205DF
:1002E00043B710C2BCEFB4030543B710D2BC12042D
:1002F00030D394C040037F0222120430FFE59854AB
:100300003F4FF598EF64C06008EF6440600302035C
:10031000C29000021205687F007E307D2A7C0012A8
:1003200004B28F1A8E198D188C17E4FFFE7D01FC24
:10033000AB1AAA19A918A817C312054440037F02D3
:1003400022C3E4951AF51AE49519F5197401951864
:10035000F518E49517F517AB14AA15A91690000126
:10036000120449FB6401702CC28E538EFE5389BF68
:100370005389CF438E40AF1AAE19AD18AC17780829
:100380001205558F8D851A8BC2AB5389BF538FFDD4
:10039000D28E8062EB64027026538EEF438E01533F
:1003A0008EF7438E04AF1AAE19AD18AC1778081249
:1003B00005558FD6851AD753AFFB438E1080377FF4
:1003C0000222AB14AA15A916120430FF7013900074
:1003D00008120449B40105438E20801A538EDF8031
:1003E00015EFB48011900008120449B40105438749
:1003F00080800353877FAB14AA15A91690000912B9
:100400000449B40104D2AC8002C2AC9000071204CB
:1004100049B40104D29C8002C29C90000B12044992
:0F04200054C0FFE5A2543F4FF5A27F00227F0298
:01042F0022AA
:1006E5007480251DF582E43400F583EFF0051DE5E2
:1006F5001DC394804003E4F51DE51E7005751E01BC
:03070500D2992264
:10000300120430FF600C1206E5740129F9E43AFA90
:0300130080EE225A
:030023000205CE05
:1005CE00C0E0C083C082C0D075D000C00730982470
:1005DE00C298E521701EE51FC394804003751F006D
:1005EE00AF1F051F74002FF582E43400F583E599E3
:1005FE00F0752005309927C299E51C651D601C74A5
:10060E0080251CF582E43400F583E0F599051CE5A0
:10061E001CC394804008751C008003751E00D00713
:09062E00D0D0D082D083D0E0329C
:10043000BB010689828A83E0225002E722BBFE02CA
:09044000E32289828A83E49322FD
:10044900BB010CE58229F582E5833AF583E0225068
:1004590006E92582F8E622BBFE06E92582F8E222B2
:0D046900E58229F582E5833AF583E49322CC
:1004760075F008758200EF2FFFEE33FECD33CDCC3D
:1004860033CCC58233C5829BED9AEC99E5829840C0
:100496000CF582EE9BFEED9AFDEC99FC0FD5F0D69D
:1004A600E4CEFBE4CDFAE4CCF9A88222B800C1B9C7
:1004B6000059BA002DEC8BF084CFCECDFCE5F0CB05
:1004C600F97818EF2FFFEE33FEED33FDEC33FCEB3E
:1004D60033FB10D703994004EB99FB0FD8E5E4F9F9
:1004E600FA227818EF2FFFEE33FEED33FDEC33FCE6
:1004F600C933C910D7059BE99A4007EC9BFCE99ADA
:10050600F90FD8E0E4C9FAE4CCFB2275F010EF2F1E
:10051600FFEE33FEED33FDCC33CCC833C810D7071E
:100526009BEC9AE899400AED9BFDEC9AFCE899F859
:0E0536000FD5F0DAE4CDFBE4CCFAE4C8F922EC
:10054400EB9FF5F0EA9E42F0E99D42F0E89C45F00D
:010554002284
:10055500E8600FECC313FCED13FDEE13FEEF13FF84
:03056500D8F122A8
:10056800BB010DE58229F582E5833AF5830205A5ED
:100578005007E92582F8020598BBFE07E92582F8AD
:100588000205B1E58229F582E5833AF5830205BEC5
:0D059800E6FB08E6F908E6FA08E6CBF822D3
:0C05A500E0F8A3E0F9A3E0FAA3E0FB22D9
:0D05B100E2FB08E2F908E2FA08E2CBF822CA
:1005BE00E493F8740193F9740293FA740393FB2293
:00000001FF
